:03000000020808EB
:0C080800787FE4F6D8FD75813602084FB9
:100BC500010E00010C00010B00420005035242001A
:100BD5000903B642000E01F441000B034100000376
:100BE500420007000F420001006442000C000F4262
:100BF50000030064010A0002080000010D00010F56
:010C050000EE
:10004E0090FEA0E4F0E58F30E5FB758E51E58E5401
:10005E00C0FFBF40F890FE917401F0D2D5C2D1D24C
:10006E00AF90FF10E054F04408F053A0FE7B087DE3
:10007E00207F01120A6F7D207F01120FB97B087D50
:10008E00047F01120A6F7B087D087F01120A6F7DC3
:10009E00047F01120FB97D087F01120FB97513018C
:1000AE00E4FBFD7F01120E6FE4FF1210CD1210E87B
:1000BE007F01121081E4FF12101FE4FF121076E48C
:1000CE00FB7D30FF120F737F041210C5E4FF121078
:1000DE004A12000E7F01121055E4FF12106012102A
:1000EE00D5120CB97B087D107F01120A6F7D107F2F
:1000FE0001120F8B751308E4FB7D017F11120B3477
:10010E00E4F513FBFD7F111209857F11120F5BE4DD
:10011E00FD7F11120DA77D047F01120C487FF47E26
:10012E0001121097AD07AC067F11120EF1E4FDFC23
:10013E007F11120F0C30D1FD7816E664FE600302BB
:10014E00041BE50E700302041B7817E6B40B004087
:10015E0003020413900169F828287302018A020130
:10016E00CD0201ED02021F02023B020245020264B1
:10017E0002028902038802040402040D7819E6FEC5
:10018E0018E6FDEDFF900005EEF0A3EFF0781BE60C
:10019E00FE18E6FDEDFF900009EEF0A3EFF0781DDE
:1001AE00E6FE18E6FDEDFF90000EEEF0A3EFF07800
:1001BE001FE690000BF018E6900000F00204137892
:1001CE0019E6FE18E6FDEDFF900005EEF0A3EFF048
:1001DE00781BE6FE18E6FDEDFF900009020281781D
:1001EE0019E6FE18E6FDEDFF90000EEEF0A3EFF01F
:1001FE00E50D20E003020413781AE620E003020462
:10020E0013E4FF12106090000EE0FEA3E0FF020365
:10021E0031E50D30E0030204137818E6FF9000007C
:10022E00F0139282EFC3131392830204137818E62D
:10023E0090000BF00204137819E6FE18E6FDEDFFB0
:10024E00900007EEF0A3EFF0781BE6FE18E6FDED4A
:10025E00FF900001801D7819E6FE18E6FDEDFF9077
:10026E00000CEEF0A3EFF0781BE6FE18E6FDEDFFB6
:10027E00900003EEF0A3EFF0020413900000E030C4
:10028E00E008C31330E0030204137D207F01120F38
:10029E008B7818E6600890000BE0FF120C83430D7C
:1002AE0001900000E0FF139282EFC313139283E4D8
:1002BE00F508F5097D017F011207727D017F11128C
:1002CE000D7A900005E0FEA3E0FFD39509EE9508A8
:1002DE004034A3E0FCA3E02509F509EC3508F50848
:1002EE00C3EF9509EE95085007900005A3E0800432
:1002FE00AE08AF098E088F09AD09AC087F11120F39
:10030E000C120E2480BC7F01120C8390000EE0FEB6
:10031E00A3E0FFD39400EE94004016EF9419EE94F0
:10032E0004500E1200161200067F01121060020415
:10033E0013900009E0FEA3E0FFD39509EE95084067
:10034E0034900007E0FCA3E02509F509EC3508F52B
:10035E0008C3EF9509EE95085005A3A3E08004AEFF
:10036E0008AF098E088F09AD09AC087F11120F0C6A
:10037E00120E2480BC7F01020408E4FF121060D329
:10038E00E5099400E50864809480403890000CE004
:10039E00FEA3E0FFE5099FF509E5089EF508C36495
:1003AE0080948050067E007F008004AE08AF098ED8
:1003BE00088F09AD09AC087F11120F0C90000312C3
:1003CE000E2780BBE4FD7F01120772E4FD7F111240
:1003DE000D7A7D047F01120FB97D087F01120FB9CE
:1003EE007D207F01120FB9530DFE7818E66016902E
:1003FE00000BE0FF80047818E6FF120C838006786D
:0D040E0018E6139285E4F50EC2D1020143F9
:01041B0022BE
:020C83008F10D0
:100C8500E4F512E512C395105029E4F511D2A07FC1
:100C9500A97E02120DFDC2A07F367E06120DFD054E
:100CA50011E511C394FE40E57FF47E01120E2C057B
:030CB5001280D0DA
:010CB8002219
:0A109700EF25E0FFEE33540FFE22B8
:04001600AB07AA0684
:10001A007C007D3E1209FAAD07AC06EB30E00924FC
:10002A00FFFFEA34FFFE8004AE02AF03EEC313FE05
:10003A00EF132DFDEE3CFCC374FF9DFF74FF9CFE85
:01004A002293
:03000B00020B8263
:100B8200C0E0C0F0C083C082C0D075D000C000C039
:100B920001C002C003C004C005C006C007E4FF12C2
:100BA20010761210E8750F00D007D006D005D004D9
:100BB200D003D002D001D000D0D0D082D083D0F0E8
:030BC200D0E0324E
:03004B0002089414
:10089400C0E0C0F0C083C082C0D075D000C000C02A
:1008A40001C002C003C004C005C006C00753C97F0D
:1008B400D390000AE09509900009E0950850057569
:1008C4000AFB8012C3900006E09509900005E095AC
:1008D400084003750A05AF0AEF3395E0FEEF2509DA
:1008E400F509EE3508F508AD09FC7F11120F0CD09F
:1008F40007D006D005D004D003D002D001D000D058
:0A090400D0D082D083D0F0D0E032D2
:03001300020ED406
:100ED4005396FD308016750B00750C002081093087
:0D0EE400D506C2D5750E0032D2D5D2D1325E
:0300030002090EE1
:10090E00C0E0C083C082C0D075D000C000C006C099
:10091E00075396FE20D551E50BB4080B90FF00E06F
:10092E00540F4480F0C281E50BF45407FFA281E41A
:10093E0033FEA807088002C333D8FC420C050BE532
:10094E000BB4080EAF0E050E74162FF8A60CC2AA25
:10095E008016E50BB40911750C00750B005396FD4E
:10096E00D2AA90FF007466F0D007D006D000D0D087
:07097E00D082D083D0E032EB
:100DFD00750F01EFC4F8540FC868FFEEC454F048E6
:100E0D00FEC374FF9FFF74FF9EFE1210A17F01129F
:070E1D001076E50F70FC22C6
:080E2400900001E0FEA3E0FFD5
:100E2C00D3EF9400EE940040147D3C7C06ED1D70D5
:0D0E3C00011CED4C70F7EF1F70E61E80E307
:010E49002286
:100AE200EF24EE601D14603024027045E4F5E1F558
:100AF200DAF5E3F5E2F5E5F5E4F5E7F5E690FF90E2
:100B0200802AE4F5E9F5DBF5EBF5EAF5EDF5ECF530
:100B1200EFF5EE90FF948014E4F5F1F5DCF5F3F5D2
:100B2200F2F5F5F5F4F5F7F5F690FF987437F0A3C2
:020B3200F022AF
:100B3400EF24EE602414602924027041ED5403FF75
:100B4400E5DA54F04FFFEB540C4FF5DAE513540893
:100B5400FFE5E154F74FF5E122ED5403FFE5DB80B7
:100B640006ED5403FFE5DC54F04FFFEB540C4FF556
:0E0B7400DBE5135408FFE5E954F74FF5E922DD
:10098500EF24EE602A14604A24027068EB5460FF7D
:10099500E5E1549F4FF5E1E513600543E110800360
:1009A50053E1EFED5410FFE5DA54EF4FF5DA22EBA2
:1009B5005460FFE5E1549F4FF5E9E513600543E910
:1009C50010800353E9EFED5410FFE5DB54EF4FF5CD
:1009D500DB22EB5460FFE5F1549F4FF5F1E5136021
:1009E5000543F110800353F1EFED5410FFE5DC549E
:0509F500EF4FF5DC22CC
:100C4800EF24FE601824FE601A14601D24FE601F45
:100C58001460222407702390FF90EDF02290FF91FA
:100C6800EDF02290FF94EDF02290FF95EDF02290A8
:0B0C7800FF98EDF02290FF99EDF022B4
:10077200EF14B40900400302080790078A75F003DA
:10078200A4C58325F0C583730207A50207B002073B
:10079200BB0207C60207D10207DC0207E70207F223
:1007A2000207FDED600443E1022253E1FD22ED6008
:1007B2000443E1042253E1FB22ED600443E10622FB
:1007C20053E1F922ED600443E9022253E9FD22EDEF
:1007D200600443E9042253E9FB22ED600443E90685
:1007E2002253E9F922ED600443F1022253F1FD2282
:1007F200ED600443F1042253F1FB22ED600443F166
:06080200062253F1F92269
:100EF100EF24EE600C14600E2402700E8CE38DE280
:0B0F0100228CEB8DEA228CF38DF22293
:100F0C00EF24EE600C14600E2402700E8CE58DE460
:0B0F1C00228CED8DEC228CF58DF42270
:100F2700EF24EE600C14600E2402700E8CE78DE641
:0B0F3700228CEF8DEE228CF78DF6224D
:100D7A00EF24EE601214601A24027020BD010443AD
:100D8A00E1012253E1FE22BD010443E9012253E9B4
:0D0D9A00FE22BD010443F1012253F1FE22AF
:100DA700EF24EE601214601A24027020BD01044380
:100DB700DA802253DA7F22BD010443DB802253DB32
:0D0DC7007F22BD010443DC802253DC7F222B
:100CEA00EF24EE601214601A24027021E5DA30E66D
:100CFA00037F01227F0022E5DB30E6037F01227FAA
:100D0A000022E5DC30E6037F01227F00227F0022F9
:100F5B00EF24EE600B14600C2402700B53DABF22EB
:080F6B0053DBBF2253DCBF225F
:100D1A00EF24EE601214601A24027021E5DA30E53D
:100D2A00037F01227F0022E5DB30E5037F01227F7A
:100D3A000022E5DC30E5037F01227F00227F0022CA
:0810BD00E5B9543F4FF5B922DB
:0E102F00E4F5C9F5CBF5CA90FF837437F022C3
:100F7300ED5430FEE5C954C84EFEEF54034EFFEB6B
:080F830025E025E04FF5C9222D
:050006008ECB8FCA2221
:0610DC0090FF83EFF022FB
:0B104A00EF600443C9402253C9BF22DD
:0B105500EF600443B8022253B8FD22F4
:0B106000EF600443C9042253C9FB22C7
:0B106B00E5C930E7037F01227F00226F
:04000E0053C97F2231
:0810C500E5B954F34FF5B9221F
:100FA30090FEB0120A3E0000000090FEB8E4F0A3E9
:060FB300F0F597F596220F
:10041C008F148D15E4FCFDFEE5155403FFE4A914BF
:10042C00A801120A1FC004C005C006C00774037ED1
:10043C0000A814088005C333CE33CED8F9F4FFEEF0
:10044C00F4FE3395E0FDFC90FEB0E0F8A3E0F9A3D8
:10045C00E0FAA3E05FFFEA5EFEE95DFDE85CFCD03C
:10046C0003D002D001D000EB4FEA4EE94DFDE84C31
:10047C00E4FFFEE4FC7808120A0CC004C005C006B8
:10048C00C007E4FCFDFEE5155403FFE4A914A80124
:10049C00120A1FC004C005C006C00774037E00A862
:1004AC0014088005C333CE33CED8F9F4FFEEF4FE36
:1004BC003395E0FDFC90FEB0E0F8A3E0F9A3E0FA80
:1004CC00A3E05FFFEA5EFEE95DFDE85CFCD003D0D3
:1004DC0002D001D000EB4FEA4EE94DE84CFCE4FFB2
:1004EC00FEFDEC7818120A0CD003D002D001D0001B
:1004FC00EF4BFFEE4AFEED49FDEC48FCC004C00595
:10050C00C006C007E4FCFDFEE5155403FFE4A91486
:10051C00A801120A1FC004C005C006C00774037EE0
:10052C0000A814088005C333CE33CED8F9F4FFEEFF
:10053C00F4FE3395E0FDFC90FEB0E0F8A3E0F9A3E7
:10054C00E0FAA3E05FFFEA5EFEE95DFDE85CFCD04B
:10055C0003D002D001D000EB4FEA4EFEE94DE84C3F
:10056C00E4FFE4FDFC7808120A1FD003D002D0018E
:10057C00D000EF4BFFEE4AFEED49FDEC48FCC00409
:10058C00C005C006C007E4FCFDFEE5155403FFE4FE
:10059C00A914A801120A1FC004C005C006C0077424
:1005AC00037E00A814088005C333CE33CED8F9F4EB
:1005BC00FFEEF4FE3395E0FDFC90FEB0E0F8A3E016
:1005CC00F9A3E0FAA3E05FFFEA5EFEE95DFDE85CFB
:1005DC00FCD003D002D001D000EB4FFFEA4EE94D26
:1005EC00E84CE4FEFDFC7818120A1FD003D002D0B0
:1005FC0001D000EF4BFFEE4AFEED49FDEC48FC90BC
:05060C00FEB0020A32FD
:10061100A907ED70030206BBE9700443A80122B9E2
:10062100020443A80422E9D3940E503C43B84090FD
:10063100FEB8C083C082E0FCA3E0FDE9C313FF74F0
:10064100017E00A807088005C333CE33CED8F97BDD
:1006510000FAE9C313FF74017E00A807088005C3EF
:1006610033CE33CED8F98043E9D3941E4003020739
:100671007143B88090FEB8C083C082E0FCA3E0FD66
:10068100E9C313FF74017E00A807088005C333CEB8
:1006910033CED8F97B00FAE9C313FF74017E00A8B9
:1006A10007088005C333CE33CED8F9EEFFEAFEEF5B
:1006B1004BFFEC4EFEED4F020767E9700453A8FEB5
:1006C10022B9020453A8FB22E9D3940E504A53B82D
:1006D100BF90FEB8C083C082E0FCA3E0FDE9C31374
:1006E100FF74017E00A807088005C333CE33CED83E
:1006F100F97B00FAE9C313FF74017E00A8070880A3
:1007010005C333CE33CED8F9EEFFEAFEEF4BF4FF4B
:10071100EEF45CFEED5F804EE9D3941E505253B867
:100721007F90FEB8C083C082E0FCA3E0FDE9C31363
:10073100FF74017E00A807088005C333CE33CED8ED
:10074100F97B00FAE9C313FF74017E00A807088052
:1007510005C333CE33CED8F9EEFFEAFEEF4BF4FFFB
:10076100EEF45CFEED5FFFD082D083EEF0A3EFF0FC
:010771002265
:100E4A00EFC313FF74017E00A807088005C333CEE1
:100E5A0033CED8F9FFE5975EFEE5965F4E60037FD5
:050E6A0001227F0022BF
:100EB400EFC313FF74017E00A807088005C333CE77
:100EC40033CED8F9F4FFEEF4FEEF5296EE529722A9
:0910AB0090FEBCE054FE4FF0225F
:0910B40090FEBCE054FD4FF02257
:100C0700EF7008E5A954FC4DF5A922BF020DEDC40C
:100C170054F0FFE5A954CF4FF5A922EFD3940E5016
:100C27000BEDC454F0FFE5BA54CF8011EFD3941EF7
:100C3700500EEDC4333354C0FFE5BA543F4FF5BAF5
:010C4700228A
:0710D50090FF007466F02299
:100CB90090FEB0E0440EF090FEBCE4F07D02FF121D
:100CC9000C077D037F02120C07E4FF120EB47F02AA
:100CD900120EB47D01E4FF1206117D017F020206A6
:010CE90011F9
:100F42005389F090FE80E054FCF05388CF90FF80EC
:090F52007437F0E4F58CF58A22F5
:100E6F00EF5401FF90FE80E054FE4FF0ED5408FF69
:100E7F00E58954F04FFFEB54044FFFE51354034F34
:030E8F00F58922C0
:0A10A100AD07AC068C8CEDF58A2239
:10101F00EF90FE806005E04402F022E054FDF022E4
:0B107600EF6004438810225388EF2233
:0610E20090FF80EFF022F8
:0B108100EF600443A8022253A8FD22E8
:0B108C00E58830E5037F01227F002291
:0410E8005388DF2228
:0810CD00E5A954F34FF5A92237
:100DD400BF0108E4F58090FF008016BF020AE4F525
:100DE4009090FF087433F022BF030DE4F5A090FF48
:090DF40010120A3E33333333229E
:040A6F008B10A90738
:100A7300E924FFFFE434FFFEEF7803C333CE33CE24
:100A8300D8F9FF7EFFE4FCB90206ECD39401504E83
:100A9300ED30E042ECC3132FF582E43EF583E0FB37
:100AA300EC540125E025E0FA74F0A802088002C3A3
:100AB30013D8FC5BFBEC540125E025E0FAE510A814
:100AC30002088002C333D8FC4BFBECC3132FF5821F
:0E0AD300E43EF583EBF0EDC313FD0CBC08A967
:010AE10022F2
:10100D00BF01038D8022BF02038D9022BF03028D8D
:02101D00A0220F
:100FB900BF0104ED428022BF0204ED429022BF032B
:050FC90003ED42A0222F
:100F8B00BF0105EDF4528022BF0205EDF452902211
:080F9B00BF0304EDF452A02293
:100FCE00BF0104ED628022BF0204ED629022BF03D6
:050FDE0003ED62A022FA
:100FE300BF0103AF8022BF0203AF9022BF0303AF51
:050FF300A0227F002296
:100FF800BF0103AF8022BF0203AF9022BF0303AF3C
:05100800A0227F002280
:100E9200BF0106E58052058010BF0206E5905205AB
:100EA2008007BF0304E5A05205ED60037F01227FA6
:020EB20000221C
:0D103D00EF5430FF90FF05E054CF4FF0223C
:100D4A00EF24FE600D24FE600E2403702290FF4003
:100D5A00800890FF41800390FF42E0E4F0E0FFED5D
:100D6A0054C0FEEF4EF0E0FFEB543FFEEF4EF02290
:1008140002004EE493A3F8E493A34003F68001F2AC
:1008240008DFF48029E493A3F85407240CC8C333E5
:10083400C4540F4420C8834004F456800146F6DFB4
:10084400E4800B0102040810204080900BC5E47E74
:10085400019360BCA3FF543F30E509541FFEE493A9
:10086400A360010ECF54C025E060A840B8E493A370
:10087400FAE493A3F8E493A3C8C582C8CAC583CA9B
:10088400F0A3C8C582C8CAC583CADFE9DEE780BE53
:010C060000ED
:1009FA00EF8DF0A4A8F0CF8CF0A428CE8DF0A42E11
:020A0A00FE22CA
:100A0C00E8600FECC313FCED13FDEE13FEEF13FFC8
:030A1C00D8F122EC
:100A1F00E8600FEFC333FFEE33FEED33FDEC33FC35
:030A2F00D8F122D9
:0C0A3200ECF0A3EDF0A3EEF0A3EFF02237
:100A3E00A8828583F0D083D082120A55120A5512ED
:100A4E000A55120A55E473E493A3C583C5F0C58312
:100A5E00C8C582C8F0A3C583C5F0C583C8C582C802
:010A6E002265
:00000001FF
